:020000040000FA
:0400000000000A28CA
:040004000034003490
:080008002000911025001430C6
:100010009106090084012030850024008C15210000
:100020008C012F308E00220000309D0000309E0099
:10003000210008309500703099001D10220098139F
:100040009113931323008C018E01230008309F002D
:100050002300023091009201950115141308F32436
:1000600000380319222D23009B009C0124309E00A0
:1000700090309D00003091009201950115141308F5
:10008000F3000130910015141308031DF30AF20068
:10009000033091009201950115141308FD00FE0034
:1000A000043091009201950115141308F000FC0032
:1000B000F400F501F4070318F50AF4070318F50A2C
:1000C000F408031DF50A00301A001A001A00F60B96
:1000D0006428F70170350318F70AF6070318F70AC2
:1000E00005309100920195011514130891010F2517
:1000F000FF0020000C148C148C160C128E1D722A1A
:10010000960197011130980011109C019A01093055
:1001100009309B0025009E01260005309100030157
:100120000C30930020009110210091142000F10167
:100130000130FB00FA008601203087007F18413132
:10014000FF18423103149A011C1500000000000042
:100150007108BD280C1200000C16891C0C1280249A
:1001600000000C1200000C16091C0C127E317F1BC3
:100170004131FF1B43310C1271080C16811F0C1208
:1001800009138917911E4030F8000C1200300C162C
:10019000011F0C122300781F1D08910420000C126F
:1001A00006390C16811E0C122300781F190E200030
:1001B000F9000C12890E0C16011E0C12031D781783
:1001C000803E890F78120C1200000C16811D0C1253
:1001D000890FF813890A0319F8160C12D0300C167F
:1001E000011D0C12F81BF80578183A2A78080C1231
:1001F00066390C16811C0C12790E230003199A0023
:1002000020000C12790E0C16011C0C127E317F1985
:100210004131FF1943310C1200000C16811F0C12E2
:10022000711A4E3EF9007808FB390C1200000C16CA
:10023000011F0C12F90E790E03191A0078080C121E
:10024000F8390C16811E0C120319F6030319F70373
:1002500071120C12780D0C16011E0C12F81F0319E6
:10026000F10D781A71160C1285160C16811D0C12E0
:10027000781FFB170000000000000C1200000C1695
:10028000011D0C12802400000C1200000C16811CB1
:100290000C12802400000C1200000C16011C0C1221
:1002A0007E317F1A4131FF1A43310C1200000C16C7
:1002B000811F0C12802400000C1200000C16011F7C
:1002C0000C12802400000C1200000C16811E0C126F
:1002D000802400000C1200000C16011E0C12802459
:1002E00000000C1200000C16811D0C12802400006E
:1002F0000C1200000C16011D0C1200000108FE0B70
:10030000AA287D080C12FE000C16811C0C12010894
:100310004331FC0BB12800000C1200000C16091C24
:100320000C12802400000C1200001C112300110884
:100330009101200006392030031DFA00FB1BFB0051
:10034000111CAF2911102230FB0B89108918FB0AF0
:10035000FA0B8912891AFA0A0C0622398C06222411
:10036000222422242224222422242224222422245D
:10037000222422242224222422242224222422244D
:10038000222422242224222422242224222422243D
:10039000222422242224222422242224222422242D
:1003A000222422242224222422242224222422241D
:1003B000222422242224222422242224222422240D
:1003C00022242224222422242224222422242224FD
:1003D00022242224222422242224222422242224ED
:1003E00022242224222422242224222422242224DD
:1003F00022242224222422242224222422242224CD
:1004000022242224222422242224222422242224BC
:1004100022242224222422242224222422242224AC
:10042000222422242224222422242224222422249C
:10043000222422242224222422242224222422248C
:10044000222422242224222422242224222422247C
:1004500022242224222422248601203087007F188F
:100460004131FF184231200820007008FC008C1D2B
:10047000812CA3280C1273080C16811C0C12F70097
:100480007203F6000319F7030C1202300C16011C5C
:100490000C127E317F194131FF1943310C120000DB
:1004A0000C16811F0C1203190430F91D0830F100DD
:1004B0000C1200000C16011F0C1284012300790E8F
:1004C0009A0020000C1274080C16811E0C1271196F
:1004D000F60075087119F7000C1285010C16011E43
:1004E0000C123129960197011130980011109C01CE
:1004F0009A0109300D309B0025009E012600053031
:100500009100200091102000F1010130FB00FA0061
:100510007F0803398600203087001C15FC309A00C4
:10052000000026000C30930022000C081038811FB8
:1005300009128C00802480240C081038011F091235
:100540008C000000802480240C081038811E0912C1
:100550008C000000802480240C081038011E091231
:100560008C000000802480240C081038811D0912A2
:100570008C000000802480240C081038011D091212
:100580008C000000802480240C081038811C091283
:100590008C000000802480240C081038011C0912F3
:1005A0008C007E317F194131FF19433180240C08C2
:1005B0001038811F09128C000000802480240C0850
:1005C0001038011F09128C000000802480240C08C0
:1005D0001038811E09128C000000802480240C0831
:1005E0001038011E09128C000000802480240C08A1
:1005F0001038811D09128C000000802480240C0812
:100600001038011D09128C000000802480240C0881
:100610001038811C09128C000000802480240C08F2
:100620001038011C09127E318C007F1A4131FF1AEB
:10063000433180240C081038811F09128C000000FF
:10064000802480240C081038011F09128C0000003F
:10065000802480240C081038811E09128C000000B0
:10066000802480240C081038011E09128C00000020
:10067000802480240C081038811D09128C00000091
:10068000802480240C081038011D09128C00000001
:10069000802480240C081038811C09128C00000072
:1006A000802480240C081038011C09128C007E3133
:1006B0007F1B4131FF1B4331802480240000000058
:1006C00026009301200080240C122224FE0B902A85
:1006D0007D08FE0043310000FC0B902A22000C1123
:1006E000230011089101200006392030031DFA0073
:1006F000FB1BFB00111C892B11102230FB0B8910F6
:100700008918FB0AFA0B8912891AFA0A0C0622398F
:100710008C06200022242224222422242224222483
:100720002224222422242224222422242224222499
:100730002224222422242224222422242224222489
:100740002224222422242224222422242224222479
:100750002224222422242224222422242224222469
:100760002224222422242224222422242224222459
:100770002224222422242224222422242224222449
:100780002224222422242224222422242224222439
:100790002224222422242224222422242224222429
:1007A0002224222422242224222422242224222419
:1007B0002224222422242224222422242224222409
:1007C00022242224222422242224222422242224F9
:1007D00022242224222422242224222422242224E9
:1007E00022242224222422242224222422242224D9
:1007F00022242224222422242224222422242224C9
:1008000022242224222422242224222422242224B8
:1008100022242224222422242224222422242224A8
:10082000222422242224222422248601203087000C
:100830007F184131FF18423120007008FC008C1DE8
:10084000812C8E2A710809138917911E4030F800F7
:1008500000302300781F1D08910420000639230072
:10086000781F190E2000F900890E031D7817803EAD
:10087000890F7812890FF813890A0319F816D030F6
:10088000F81BF8057818662C78086639790E23006D
:1008900003199A002000790E711A4E3EF90078086B
:1008A000FB39F90E790E03191A007808F839031983
:1008B000F6030319F7037112780DF81F0319F10DF0
:1008C000781A71168516781FFB1708000000730848
:1008D000F7007203F6000319F7030230031904301E
:1008E000F91D0830F10084012300790E9A002000E0
:1008F00074087119F60075087119F7008501602CEC
:10090000080020000C14802480248C16802480246D
:100910008C14F1018401203085000130F000F300D7
:10092000F200F5000630F400F601F7010430F3247C
:1009300023009B009C012000111CA42C1110F00B23
:10094000A42CF01601308C062224711B9C2C040868
:10095000063A031D9C2C2008FE39031DAD2C2008EF
:1009600021040319B12C2300910120002008E02468
:1009700023000130910020002108E02423000230F0
:10098000910020002208E024230003309100200081
:100990002308E02423000430910020002408E024F0
:1009A00023000530910020002508E02420000C10D1
:1009B000802480248C10802480248C12DE2CDF2C58
:1009C00023009201930015139513151555309600C9
:1009D000AA30960095148B1715119518EC2C200051
:1009E000121223000800003A03199F34003A013A1A
:1009F0000319CF34013A023A03198934023A033A0F
:100A000003196734033A043A03194434043A053AA3
:100A100003192134053A063A03191034003400381A
:100A200003192834FF3E03195C34FF3E0319753463
:100A3000FF3E03198934FF3E0319A234FF3E031918
:0A0A4000D634003420000C10222DE3
:020000040001F9
:02000E00A4DF6D
:02001000FFD916
:0CE000000000010005000100C800000045
:00000001FF
